101B841128086 0910000190809221838A094101SERVICELIVE, INC       WELLS FARGO BANK               
5200SERVICELIVE, INC23868000027         B841128086CCDPAYMENT   0909010909010001091000017000001
622123112367123456789        0000000181100191493      DOMINICK  LASTNAME      1091000010000005
799R0409100001282042600000012200066                                            091000016280473
82000000020023802258000000000000000000001168B841128086                         091000010000001
9000005000003000000100145686180000000295187000000006090                                       