101B841128086 0910000190809221838A094101SERVICELIVE, INC       WELLS FARGO BANK               
5200SERVICELIVE, INC23868000027         B841128086CCDPAYMENT   0909010909010001091000017000001
622114910222111              0000000987100191494      FINANCEBUYER            1091000010000006
798C02091000015184250      02207269222370440                                   091000010000217
82000000020023802258000000000000000000001168B841128086                         091000010000001
9000005000003000000100145686180000000295187000000006090                                       